{
  "contractName": "GameToken",
  "abi": [
    {
      "inputs": [
        {
          "name": "deployer",
          "type": "address"
        }
      ],
      "payable": false,
      "stateMutability": "nonpayable",
      "type": "constructor"
    },
    {
      "anonymous": false,
      "inputs": [
        {
          "indexed": true,
          "name": "_from",
          "type": "address"
        },
        {
          "indexed": true,
          "name": "_to",
          "type": "address"
        },
        {
          "indexed": false,
          "name": "_value",
          "type": "uint256"
        }
      ],
      "name": "Transfer",
      "type": "event"
    },
    {
      "anonymous": false,
      "inputs": [
        {
          "indexed": true,
          "name": "_owner",
          "type": "address"
        },
        {
          "indexed": true,
          "name": "_spender",
          "type": "address"
        },
        {
          "indexed": false,
          "name": "_value",
          "type": "uint256"
        }
      ],
      "name": "Approval",
      "type": "event"
    },
    {
      "constant": false,
      "inputs": [
        {
          "name": "_to",
          "type": "address"
        },
        {
          "name": "_value",
          "type": "uint256"
        }
      ],
      "name": "transfer",
      "outputs": [
        {
          "name": "success",
          "type": "bool"
        }
      ],
      "payable": false,
      "stateMutability": "nonpayable",
      "type": "function"
    },
    {
      "constant": false,
      "inputs": [],
      "name": "makeToken",
      "outputs": [
        {
          "name": "success",
          "type": "bool"
        }
      ],
      "payable": false,
      "stateMutability": "nonpayable",
      "type": "function"
    },
    {
      "constant": false,
      "inputs": [
        {
          "name": "_from",
          "type": "address"
        },
        {
          "name": "_value",
          "type": "uint256"
        }
      ],
      "name": "transfer2",
      "outputs": [
        {
          "name": "success",
          "type": "bool"
        }
      ],
      "payable": false,
      "stateMutability": "nonpayable",
      "type": "function"
    },
    {
      "constant": false,
      "inputs": [
        {
          "name": "_from",
          "type": "address"
        },
        {
          "name": "_to",
          "type": "address"
        },
        {
          "name": "_value",
          "type": "uint256"
        }
      ],
      "name": "transferFrom",
      "outputs": [
        {
          "name": "success",
          "type": "bool"
        }
      ],
      "payable": false,
      "stateMutability": "nonpayable",
      "type": "function"
    },
    {
      "constant": true,
      "inputs": [
        {
          "name": "_owner",
          "type": "address"
        }
      ],
      "name": "balanceOf",
      "outputs": [
        {
          "name": "balance",
          "type": "uint256"
        }
      ],
      "payable": false,
      "stateMutability": "view",
      "type": "function"
    },
    {
      "constant": false,
      "inputs": [
        {
          "name": "_spender",
          "type": "address"
        },
        {
          "name": "_value",
          "type": "uint256"
        }
      ],
      "name": "approve",
      "outputs": [
        {
          "name": "success",
          "type": "bool"
        }
      ],
      "payable": false,
      "stateMutability": "nonpayable",
      "type": "function"
    },
    {
      "constant": true,
      "inputs": [
        {
          "name": "_owner",
          "type": "address"
        },
        {
          "name": "_spender",
          "type": "address"
        }
      ],
      "name": "allowance",
      "outputs": [
        {
          "name": "remaining",
          "type": "uint256"
        }
      ],
      "payable": false,
      "stateMutability": "view",
      "type": "function"
    },
    {
      "constant": true,
      "inputs": [],
      "name": "getTotalSupply",
      "outputs": [
        {
          "name": "supply",
          "type": "uint256"
        }
      ],
      "payable": false,
      "stateMutability": "view",
      "type": "function"
    },
    {
      "constant": false,
      "inputs": [
        {
          "name": "scores",
          "type": "uint256"
        }
      ],
      "name": "charging",
      "outputs": [
        {
          "name": "success",
          "type": "bool"
        }
      ],
      "payable": false,
      "stateMutability": "nonpayable",
      "type": "function"
    },
    {
      "constant": true,
      "inputs": [],
      "name": "checkHouseEther",
      "outputs": [
        {
          "name": "",
          "type": "uint256"
        }
      ],
      "payable": false,
      "stateMutability": "view",
      "type": "function"
    },
    {
      "constant": false,
      "inputs": [
        {
          "name": "_to",
          "type": "address"
        },
        {
          "name": "amount",
          "type": "uint256"
        }
      ],
      "name": "Token",
      "outputs": [
        {
          "name": "success",
          "type": "bool"
        }
      ],
      "payable": false,
      "stateMutability": "nonpayable",
      "type": "function"
    }
  ],
  "bytecode": "0x608060405234801561001057600080fd5b506040516020806110028339810180604052602081101561003057600080fd5b8101908080519060200190929190505050806000806101000a81548173ffffffffffffffffffffffffffffffffffffffff021916908373ffffffffffffffffffffffffffffffffffffffff1602179055506509184e72a000600760008373ffffffffffffffffffffffffffffffffffffffff1673ffffffffffffffffffffffffffffffffffffffff168152602001908152602001600020819055506509184e72a0006005819055506040518060400160405280600a81526020017f47414d4520544f4b454e0000000000000000000000000000000000000000000081525060039080519060200190610123929190610192565b506012600260006101000a81548160ff021916908360ff1602179055506040518060400160405280600481526020017f47414d45000000000000000000000000000000000000000000000000000000008152506004908051906020019061018b929190610192565b5050610237565b828054600181600116156101000203166002900490600052602060002090601f016020900481019282601f106101d357805160ff1916838001178555610201565b82800160010185558215610201579182015b828111156102005782518255916020019190600101906101e5565b5b50905061020e9190610212565b5090565b61023491905b80821115610230576000816000905550600101610218565b5090565b90565b610dbc806102466000396000f3fe608060405234801561001057600080fd5b50600436106100a95760003560e01c8063a9059cbb11610071578063a9059cbb1461029e578063acd4dbf014610304578063c4e41b2214610322578063c5944f3014610340578063dd62ed3e146103a6578063f63af02c1461041e576100a9565b8063095ea7b3146100ae57806323b872dd146101145780635ddba6591461019a57806370a08231146101e05780637ce7c99014610238575b600080fd5b6100fa600480360360408110156100c457600080fd5b81019080803573ffffffffffffffffffffffffffffffffffffffff16906020019092919080359060200190929190505050610440565b604051808215151515815260200191505060405180910390f35b6101806004803603606081101561012a57600080fd5b81019080803573ffffffffffffffffffffffffffffffffffffffff169060200190929190803573ffffffffffffffffffffffffffffffffffffffff16906020019092919080359060200190929190505050610532565b604051808215151515815260200191505060405180910390f35b6101c6600480360360208110156101b057600080fd5b81019080803590602001909291905050506107ae565b604051808215151515815260200191505060405180910390f35b610222600480360360208110156101f657600080fd5b81019080803573ffffffffffffffffffffffffffffffffffffffff1690602001909291905050506108ef565b6040518082815260200191505060405180910390f35b6102846004803603604081101561024e57600080fd5b81019080803573ffffffffffffffffffffffffffffffffffffffff16906020019092919080359060200190929190505050610938565b604051808215151515815260200191505060405180910390f35b6102ea600480360360408110156102b457600080fd5b81019080803573ffffffffffffffffffffffffffffffffffffffff169060200190929190803590602001909291905050506109ff565b604051808215151515815260200191505060405180910390f35b61030c610baa565b6040518082815260200191505060405180910390f35b61032a610bb4565b6040518082815260200191505060405180910390f35b61038c6004803603604081101561035657600080fd5b81019080803573ffffffffffffffffffffffffffffffffffffffff16906020019092919080359060200190929190505050610bbe565b604051808215151515815260200191505060405180910390f35b610408600480360360408110156103bc57600080fd5b81019080803573ffffffffffffffffffffffffffffffffffffffff169060200190929190803573ffffffffffffffffffffffffffffffffffffffff169060200190929190505050610cad565b6040518082815260200191505060405180910390f35b610426610d34565b604051808215151515815260200191505060405180910390f35b600081600860003373ffffffffffffffffffffffffffffffffffffffff1673ffffffffffffffffffffffffffffffffffffffff16815260200190815260200160002060008573ffffffffffffffffffffffffffffffffffffffff1673ffffffffffffffffffffffffffffffffffffffff168152602001908152602001600020819055508273ffffffffffffffffffffffffffffffffffffffff163373ffffffffffffffffffffffffffffffffffffffff167f8c5be1e5ebec7d5bd14f71427d1e84f3dd0314c0f7b2291e5b200ac8c7c3b925846040518082815260200191505060405180910390a36001905092915050565b600081600760008673ffffffffffffffffffffffffffffffffffffffff1673ffffffffffffffffffffffffffffffffffffffff16815260200190815260200160002054101580156105ff575081600860008673ffffffffffffffffffffffffffffffffffffffff1673ffffffffffffffffffffffffffffffffffffffff16815260200190815260200160002060003373ffffffffffffffffffffffffffffffffffffffff1673ffffffffffffffffffffffffffffffffffffffff1681526020019081526020016000205410155b801561060b5750600082115b156107a25781600760008573ffffffffffffffffffffffffffffffffffffffff1673ffffffffffffffffffffffffffffffffffffffff1681526020019081526020016000206000828254019250508190555081600760008673ffffffffffffffffffffffffffffffffffffffff1673ffffffffffffffffffffffffffffffffffffffff1681526020019081526020016000206000828254039250508190555081600860008673ffffffffffffffffffffffffffffffffffffffff1673ffffffffffffffffffffffffffffffffffffffff16815260200190815260200160002060003373ffffffffffffffffffffffffffffffffffffffff1673ffffffffffffffffffffffffffffffffffffffff168152602001908152602001600020600082825403925050819055508273ffffffffffffffffffffffffffffffffffffffff168473ffffffffffffffffffffffffffffffffffffffff167fddf252ad1be2c89b69c2b068fc378daa952ba7f163c4a11628f55a4df523b3ef846040518082815260200191505060405180910390a3600190506107a7565b600090505b9392505050565b600081600760008060009054906101000a900473ffffffffffffffffffffffffffffffffffffffff1673ffffffffffffffffffffffffffffffffffffffff1673ffffffffffffffffffffffffffffffffffffffff1681526020019081526020016000205411610868576040517f08c379a0000000000000000000000000000000000000000000000000000000008152600401808060200182810382526041815260200180610d506041913960600191505060405180910390fd5b8160066000828254019250508190555081600760008060009054906101000a900473ffffffffffffffffffffffffffffffffffffffff1673ffffffffffffffffffffffffffffffffffffffff1673ffffffffffffffffffffffffffffffffffffffff1681526020019081526020016000206000828254039250508190555060019050919050565b6000600760008373ffffffffffffffffffffffffffffffffffffffff1673ffffffffffffffffffffffffffffffffffffffff168152602001908152602001600020549050919050565b600081600760008573ffffffffffffffffffffffffffffffffffffffff1673ffffffffffffffffffffffffffffffffffffffff16815260200190815260200160002054101580156109895750600082115b156109f45781600760008573ffffffffffffffffffffffffffffffffffffffff1673ffffffffffffffffffffffffffffffffffffffff1681526020019081526020016000206000828254039250508190555081600660008282540192505081905550600190506109f9565b600090505b92915050565b600081600760008060009054906101000a900473ffffffffffffffffffffffffffffffffffffffff1673ffffffffffffffffffffffffffffffffffffffff1673ffffffffffffffffffffffffffffffffffffffff1681526020019081526020016000205410158015610a715750600082115b15610b9f5781600760008060009054906101000a900473ffffffffffffffffffffffffffffffffffffffff1673ffffffffffffffffffffffffffffffffffffffff1673ffffffffffffffffffffffffffffffffffffffff1681526020019081526020016000206000828254039250508190555081600760008573ffffffffffffffffffffffffffffffffffffffff1673ffffffffffffffffffffffffffffffffffffffff168152602001908152602001600020600082825401925050819055508273ffffffffffffffffffffffffffffffffffffffff163373ffffffffffffffffffffffffffffffffffffffff167fddf252ad1be2c89b69c2b068fc378daa952ba7f163c4a11628f55a4df523b3ef846040518082815260200191505060405180910390a360019050610ba4565b600090505b92915050565b6000600654905090565b6000600554905090565b60008160065410158015610bd25750600082115b15610ca2578160066000828254039250508190555081600760008573ffffffffffffffffffffffffffffffffffffffff1673ffffffffffffffffffffffffffffffffffffffff168152602001908152602001600020600082825401925050819055508273ffffffffffffffffffffffffffffffffffffffff163373ffffffffffffffffffffffffffffffffffffffff167fddf252ad1be2c89b69c2b068fc378daa952ba7f163c4a11628f55a4df523b3ef846040518082815260200191505060405180910390a360019050610ca7565b600090505b92915050565b6000600860008473ffffffffffffffffffffffffffffffffffffffff1673ffffffffffffffffffffffffffffffffffffffff16815260200190815260200160002060008373ffffffffffffffffffffffffffffffffffffffff1673ffffffffffffffffffffffffffffffffffffffff16815260200190815260200160002054905092915050565b6000600660008154809291906001019190505550600190509056feec868cec9ca0ec9e90ec9d9820ec9db4eb8d94eab08020ecb6a9eca084ed9598eba0a4eb8a9420ec9db4eb8d94ebb3b4eb8ba420eca081ec8ab5eb8b88eb8ba42ea165627a7a72305820fc0dada3d3386e47a5be25d84a54167275272bdcf8b7e68a93ace4e7ee0409ac0029",
  "source": "pragma solidity ^0.5.0;\r\n\r\nimport \"./Token.sol\";\r\n\r\ncontract GameToken is Token {\r\n\r\n\r\n        address owner; //owner만 가능하게 해주는 함수를 위한 주소 onlyOwner을 사용하기 위한\r\n        uint256 _initialAmount;\r\n        uint8 _decimalUnits;\r\n        string _tokenName;\r\n        string _tokenSymbol;\r\n        uint totalSupply;\r\n        uint houseEther;//하우스에 저장시키는 이더\r\n\r\n    //생성한사람한테 owner 지정하기\r\n    constructor (address deployer) public{\r\n        owner = deployer;\r\n        balances[deployer] = 10000000000000;   //배포자 주소에 이더 저장시키기 balances가 각 주소의 이더량.\r\n        totalSupply = 10000000000000;                        // 총 이더의 수\r\n        _tokenName = \"GAME TOKEN\";                                   // 토큰 이름\r\n        _decimalUnits = 18;                            // Amount of decimals for display purposes\r\n        _tokenSymbol = \"GAME\";                               // Set the symbol for display purposes\r\n    }\r\n\r\n\r\n    function transfer(address _to, uint256 _value)external returns (bool success) {\r\n        //Default assumes totalSupply can't be over max (2^256 - 1).\r\n        //If your token leaves out totalSupply and can issue more tokens as time goes on, you need to check if it doesn't wrap.\r\n        //Replace the if with this one instead.\r\n        //if (balances[msg.sender] >= _value && balances[_to] + _value > balances[_to]) {\r\n        if (balances[owner] >= _value && _value > 0) {\r\n            //balances[msg.sender] 이 기본인데 배포자만 보낼수있게 수정하였다.\r\n            balances[owner] -= _value;\r\n            balances[_to] += _value;\r\n            emit Transfer(msg.sender, _to, _value);\r\n            return true;\r\n        } else {\r\n             return false;\r\n        }\r\n    }\r\n\r\n        function makeToken()external returns(bool success){\r\n            houseEther++;\r\n            return true;\r\n    }\r\n\r\n        function transfer2(address _from, uint256 _value)external returns (bool success) {\r\n        //Default assumes totalSupply can't be over max (2^256 - 1).\r\n        //If your token leaves out totalSupply and can issue more tokens as time goes on, you need to check if it doesn't wrap.\r\n        //Replace the if with this one instead.\r\n        //if (balances[msg.sender] >= _value && balances[_to] + _value > balances[_to]) {\r\n        if (balances[_from] >= _value && _value > 0) {\r\n            //balances[msg.sender] 이 기본인데 배포자만 보낼수있게 수정하였다.\r\n            balances[_from] -= _value;\r\n            houseEther += _value;\r\n              return true;\r\n        } else {\r\n             return false;\r\n        }\r\n    }\r\n\r\n\r\n    function transferFrom(address _from, address _to, uint256 _value)external returns (bool success) {\r\n        //same as above. Replace this line with the following if you want to protect against wrapping uints.\r\n        //if (balances[_from] >= _value && allowed[_from][msg.sender] >= _value && balances[_to] + _value > balances[_to]) {\r\n        if (balances[_from] >= _value && allowed[_from][msg.sender] >= _value && _value > 0) {\r\n            balances[_to] += _value;\r\n            balances[_from] -= _value;\r\n            allowed[_from][msg.sender] -= _value;\r\n            emit Transfer(_from, _to, _value);\r\n            return true;\r\n        }else {\r\n            return false;\r\n        }\r\n    }\r\n\r\n\r\n    function balanceOf(address _owner) external view returns (uint256 balance) {\r\n        return balances[_owner];\r\n    }\r\n\r\n\r\n    function approve(address _spender, uint256 _value)public returns (bool success) {\r\n        allowed[msg.sender][_spender] = _value;\r\n        emit Approval(msg.sender, _spender, _value);\r\n        return true;\r\n    }\r\n\r\n\r\n    function allowance(address _owner, address _spender) external view returns (uint256 remaining) {\r\n      return allowed[_owner][_spender];\r\n    }\r\n\r\n\r\n    function getTotalSupply() external view returns (uint256 supply){\r\n        return totalSupply;\r\n    } \r\n\r\n    function charging(uint256 scores) external returns(bool success){\r\n        require(balances[owner]>scores,\"소유자의 이더가 충전하려는 이더보다 적습니다.\");\r\n        houseEther += scores;\r\n        balances[owner] -= scores;\r\n        return true;\r\n    }\r\n\r\n    function checkHouseEther() external view returns(uint){\r\n        return houseEther;\r\n    }\r\n\r\n    function Token(address _to, uint amount) external returns(bool success){\r\n            if (houseEther >= amount && amount > 0) {\r\n            //하우스로부터 돈을 받는 스마트 컨트랙트이다.\r\n            houseEther -= amount;\r\n            balances[_to] += amount;\r\n            emit Transfer(msg.sender, _to, amount);\r\n            return true;\r\n        } else {\r\n             return false;\r\n        }\r\n    }\r\n\r\n\r\n    \r\n    mapping (address => uint256) balances;\r\n    mapping (address => mapping (address => uint256)) allowed;\r\n\r\n}",
  "sourcePath": "C:\\Users\\User\\Blockchain\\hanyang\\contracts\\GameToken.sol",
  "compiler": {
    "name": "solc",
    "version": "0.5.8+commit.23d335f2.Emscripten.clang"
  },
  "schemaVersion": "3.0.16",
  "updatedAt": "2020-04-02T08:24:18.668Z",
  "devdoc": {
    "methods": {}
  },
  "userdoc": {
    "methods": {}
  }
}