{
  "contractName": "Tetris",
  "abi": [
    {
      "constant": true,
      "inputs": [],
      "name": "owner",
      "outputs": [
        {
          "name": "",
          "type": "address"
        }
      ],
      "payable": false,
      "stateMutability": "view",
      "type": "function"
    },
    {
      "inputs": [],
      "payable": false,
      "stateMutability": "nonpayable",
      "type": "constructor"
    },
    {
      "payable": true,
      "stateMutability": "payable",
      "type": "fallback"
    },
    {
      "anonymous": false,
      "inputs": [
        {
          "indexed": false,
          "name": "scores",
          "type": "uint256"
        }
      ],
      "name": "CheckScores",
      "type": "event"
    },
    {
      "anonymous": false,
      "inputs": [
        {
          "indexed": false,
          "name": "house",
          "type": "uint256"
        }
      ],
      "name": "checkHouseEther",
      "type": "event"
    },
    {
      "anonymous": false,
      "inputs": [
        {
          "indexed": false,
          "name": "house",
          "type": "uint256"
        },
        {
          "indexed": false,
          "name": "myEther",
          "type": "uint256"
        }
      ],
      "name": "etherToGameToken",
      "type": "event"
    },
    {
      "anonymous": false,
      "inputs": [
        {
          "indexed": false,
          "name": "gameToken",
          "type": "address"
        }
      ],
      "name": "checkToken",
      "type": "event"
    },
    {
      "anonymous": false,
      "inputs": [
        {
          "indexed": false,
          "name": "drawToken",
          "type": "address"
        }
      ],
      "name": "checkToken2",
      "type": "event"
    },
    {
      "anonymous": false,
      "inputs": [
        {
          "indexed": false,
          "name": "myGametoken",
          "type": "uint256"
        },
        {
          "indexed": false,
          "name": "myDrawtoken",
          "type": "uint256"
        }
      ],
      "name": "gameTokenTodrawToken",
      "type": "event"
    },
    {
      "anonymous": false,
      "inputs": [
        {
          "indexed": false,
          "name": "myehter",
          "type": "uint256"
        }
      ],
      "name": "drawToether",
      "type": "event"
    },
    {
      "anonymous": false,
      "inputs": [],
      "name": "resultVoting",
      "type": "event"
    },
    {
      "anonymous": false,
      "inputs": [
        {
          "indexed": false,
          "name": "result",
          "type": "string"
        }
      ],
      "name": "failVoting",
      "type": "event"
    },
    {
      "anonymous": false,
      "inputs": [
        {
          "indexed": false,
          "name": "receiver",
          "type": "address"
        }
      ],
      "name": "congrat",
      "type": "event"
    },
    {
      "anonymous": false,
      "inputs": [
        {
          "indexed": false,
          "name": "output",
          "type": "address[]"
        },
        {
          "indexed": false,
          "name": "firstBlocknumber",
          "type": "uint256"
        },
        {
          "indexed": false,
          "name": "secondBlocknumber",
          "type": "uint256"
        }
      ],
      "name": "checkArgument",
      "type": "event"
    },
    {
      "anonymous": false,
      "inputs": [
        {
          "indexed": false,
          "name": "tem",
          "type": "string"
        }
      ],
      "name": "Score",
      "type": "event"
    },
    {
      "anonymous": false,
      "inputs": [
        {
          "indexed": false,
          "name": "index",
          "type": "uint256"
        }
      ],
      "name": "attendResult",
      "type": "event"
    },
    {
      "anonymous": false,
      "inputs": [
        {
          "indexed": false,
          "name": "result",
          "type": "bool"
        }
      ],
      "name": "useGameItem",
      "type": "event"
    },
    {
      "constant": false,
      "inputs": [
        {
          "name": "to",
          "type": "address"
        },
        {
          "name": "amount",
          "type": "uint256"
        }
      ],
      "name": "example",
      "outputs": [],
      "payable": false,
      "stateMutability": "nonpayable",
      "type": "function"
    },
    {
      "constant": false,
      "inputs": [],
      "name": "checkTokenAddress",
      "outputs": [],
      "payable": false,
      "stateMutability": "nonpayable",
      "type": "function"
    },
    {
      "constant": false,
      "inputs": [],
      "name": "checkTokenAddress2",
      "outputs": [],
      "payable": false,
      "stateMutability": "nonpayable",
      "type": "function"
    },
    {
      "constant": false,
      "inputs": [],
      "name": "checkMyToken",
      "outputs": [],
      "payable": false,
      "stateMutability": "nonpayable",
      "type": "function"
    },
    {
      "constant": false,
      "inputs": [
        {
          "name": "gameToken",
          "type": "uint16"
        },
        {
          "name": "drawToken",
          "type": "uint16"
        }
      ],
      "name": "buyDrawToken",
      "outputs": [],
      "payable": true,
      "stateMutability": "payable",
      "type": "function"
    },
    {
      "constant": false,
      "inputs": [],
      "name": "startGame",
      "outputs": [],
      "payable": false,
      "stateMutability": "nonpayable",
      "type": "function"
    },
    {
      "constant": false,
      "inputs": [
        {
          "name": "drawToken",
          "type": "uint256"
        }
      ],
      "name": "reFundEther",
      "outputs": [],
      "payable": true,
      "stateMutability": "payable",
      "type": "function"
    },
    {
      "constant": false,
      "inputs": [],
      "name": "getGameToken",
      "outputs": [],
      "payable": false,
      "stateMutability": "nonpayable",
      "type": "function"
    },
    {
      "constant": false,
      "inputs": [],
      "name": "buyGameToken",
      "outputs": [],
      "payable": true,
      "stateMutability": "payable",
      "type": "function"
    },
    {
      "constant": false,
      "inputs": [],
      "name": "attendVoting",
      "outputs": [],
      "payable": false,
      "stateMutability": "nonpayable",
      "type": "function"
    },
    {
      "constant": false,
      "inputs": [],
      "name": "checkArg",
      "outputs": [],
      "payable": false,
      "stateMutability": "nonpayable",
      "type": "function"
    },
    {
      "constant": false,
      "inputs": [
        {
          "name": "scores",
          "type": "uint256"
        }
      ],
      "name": "charging",
      "outputs": [],
      "payable": true,
      "stateMutability": "payable",
      "type": "function"
    },
    {
      "constant": false,
      "inputs": [
        {
          "name": "scores",
          "type": "uint256"
        }
      ],
      "name": "charging2",
      "outputs": [],
      "payable": true,
      "stateMutability": "payable",
      "type": "function"
    },
    {
      "constant": false,
      "inputs": [
        {
          "name": "scores",
          "type": "uint256"
        }
      ],
      "name": "win",
      "outputs": [],
      "payable": false,
      "stateMutability": "nonpayable",
      "type": "function"
    },
    {
      "constant": false,
      "inputs": [
        {
          "name": "money",
          "type": "uint256"
        }
      ],
      "name": "getEther",
      "outputs": [],
      "payable": false,
      "stateMutability": "nonpayable",
      "type": "function"
    },
    {
      "constant": false,
      "inputs": [],
      "name": "check",
      "outputs": [],
      "payable": false,
      "stateMutability": "nonpayable",
      "type": "function"
    },
    {
      "constant": false,
      "inputs": [],
      "name": "checkMyGameToken",
      "outputs": [],
      "payable": false,
      "stateMutability": "nonpayable",
      "type": "function"
    },
    {
      "constant": false,
      "inputs": [],
      "name": "checkHouse",
      "outputs": [],
      "payable": false,
      "stateMutability": "nonpayable",
      "type": "function"
    },
    {
      "constant": false,
      "inputs": [],
      "name": "checkHouse2",
      "outputs": [],
      "payable": false,
      "stateMutability": "nonpayable",
      "type": "function"
    },
    {
      "constant": false,
      "inputs": [],
      "name": "useItem",
      "outputs": [],
      "payable": false,
      "stateMutability": "nonpayable",
      "type": "function"
    },
    {
      "constant": false,
      "inputs": [],
      "name": "kill",
      "outputs": [],
      "payable": false,
      "stateMutability": "nonpayable",
      "type": "function"
    }
  ],
  "bytecode": "0x608060405260008060146101000a81548160ff021916908315150217905550600560025560006009556000600a556000600b553480156200003f57600080fd5b50336000806101000a81548173ffffffffffffffffffffffffffffffffffffffff021916908373ffffffffffffffffffffffffffffffffffffffff160217905550336040516200008f90620001e8565b808273ffffffffffffffffffffffffffffffffffffffff1673ffffffffffffffffffffffffffffffffffffffff168152602001915050604051809103906000f080158015620000e2573d6000803e3d6000fd5b506006600060028110620000f257fe5b0160006101000a81548173ffffffffffffffffffffffffffffffffffffffff021916908373ffffffffffffffffffffffffffffffffffffffff160217905550336040516200014090620001f6565b808273ffffffffffffffffffffffffffffffffffffffff1673ffffffffffffffffffffffffffffffffffffffff168152602001915050604051809103906000f08015801562000193573d6000803e3d6000fd5b506006600160028110620001a357fe5b0160006101000a81548173ffffffffffffffffffffffffffffffffffffffff021916908373ffffffffffffffffffffffffffffffffffffffff16021790555062000204565b611002806200351483390190565b611132806200451683390190565b61330080620002146000396000f3fe6080604052600436106101355760003560e01c80638da5cb5b116100ab578063cd1e33941161006f578063cd1e33941461036c578063d5c83f9914610383578063d65ab5f21461039a578063e526fed7146103b1578063e684171c1461040c578063f04961ba1461042357610135565b80638da5cb5b146102b9578063919840ad146103105780639f31b3b414610327578063b488fe1e1461033e578063cb206d601461035557610135565b80632b563ade116100fd5780632b563ade146101ea57806337cea2e41461021857806341c0e1b51461022f5780634d095313146102465780635bc60cfc146102505780635ddba6591461028b57610135565b806304f0c14e146101375780630c93f7d51461014e5780630ddd09fc14610165578063245cbf95146101a557806324a129d9146101d3575b005b34801561014357600080fd5b5061014c61045e565b005b34801561015a57600080fd5b506101636104f2565b005b6101a36004803603604081101561017b57600080fd5b81019080803561ffff169060200190929190803561ffff16906020019092919050505061070a565b005b6101d1600480360360208110156101bb57600080fd5b8101908080359060200190929190505050610cea565b005b3480156101df57600080fd5b506101e8611054565b005b6102166004803603602081101561020057600080fd5b810190808035906020019092919050505061117c565b005b34801561022457600080fd5b5061022d611514565b005b34801561023b57600080fd5b50610244611555565b005b61024e611634565b005b34801561025c57600080fd5b506102896004803603602081101561027357600080fd5b81019080803590602001909291905050506118ca565b005b6102b7600480360360208110156102a157600080fd5b8101908080359060200190929190505050611d01565b005b3480156102c557600080fd5b506102ce61206b565b604051808273ffffffffffffffffffffffffffffffffffffffff1673ffffffffffffffffffffffffffffffffffffffff16815260200191505060405180910390f35b34801561031c57600080fd5b50610325612090565b005b34801561033357600080fd5b5061033c61210e565b005b34801561034a57600080fd5b5061035361235d565b005b34801561036157600080fd5b5061036a612576565b005b34801561037857600080fd5b50610381612769565b005b34801561038f57600080fd5b506103986127fd565b005b3480156103a657600080fd5b506103af61283e565b005b3480156103bd57600080fd5b5061040a600480360360408110156103d457600080fd5b81019080803573ffffffffffffffffffffffffffffffffffffffff16906020019092919080359060200190929190505050612a22565b005b34801561041857600080fd5b50610421612b18565b005b34801561042f57600080fd5b5061045c6004803603602081101561044657600080fd5b8101908080359060200190929190505050612c47565b005b7ff1880b244046612faf159bdbfb07cc66f50c6882332c123ef0754ae656c9e795600660006002811061048d57fe5b0160009054906101000a900473ffffffffffffffffffffffffffffffffffffffff16604051808273ffffffffffffffffffffffffffffffffffffffff1673ffffffffffffffffffffffffffffffffffffffff16815260200191505060405180910390a1565b6000600660006002811061050257fe5b0160009054906101000a900473ffffffffffffffffffffffffffffffffffffffff1673ffffffffffffffffffffffffffffffffffffffff166370a08231336040518263ffffffff1660e01b8152600401808273ffffffffffffffffffffffffffffffffffffffff1673ffffffffffffffffffffffffffffffffffffffff16815260200191505060206040518083038186803b1580156105a057600080fd5b505afa1580156105b4573d6000803e3d6000fd5b505050506040513d60208110156105ca57600080fd5b810190808051906020019092919050505090506000809050600182106106c457600060066000600281106105fa57fe5b0160009054906101000a900473ffffffffffffffffffffffffffffffffffffffff1673ffffffffffffffffffffffffffffffffffffffff16635ddba65960016040518263ffffffff1660e01b815260040180828152602001915050602060405180830381600087803b15801561066f57600080fd5b505af1158015610683573d6000803e3d6000fd5b505050506040513d602081101561069957600080fd5b81019080805190602001909291905050509050600960008154809291906001019190505550506106cb565b6000809050505b7f7946dcd5d1ededf10e53c0dcfb747db8558cccc4da7b83eafe749e541c0acc6081604051808215151515815260200191505060405180910390a15050565b6000600660006002811061071a57fe5b0160009054906101000a900473ffffffffffffffffffffffffffffffffffffffff1673ffffffffffffffffffffffffffffffffffffffff166370a08231336040518263ffffffff1660e01b8152600401808273ffffffffffffffffffffffffffffffffffffffff1673ffffffffffffffffffffffffffffffffffffffff16815260200191505060206040518083038186803b1580156107b857600080fd5b505afa1580156107cc573d6000803e3d6000fd5b505050506040513d60208110156107e257600080fd5b810190808051906020019092919050505090508261ffff168111610851576040517f08c379a00000000000000000000000000000000000000000000000000000000081526004018080602001828103825260298152602001806131cc6029913960400191505060405180910390fd5b6000600a5490508261ffff1681116108b4576040517f08c379a00000000000000000000000000000000000000000000000000000000081526004018080602001828103825260328152602001806132506032913960400191505060405180910390fd5b60066000600281106108c257fe5b0160009054906101000a900473ffffffffffffffffffffffffffffffffffffffff1673ffffffffffffffffffffffffffffffffffffffff16637ce7c99033866040518363ffffffff1660e01b8152600401808373ffffffffffffffffffffffffffffffffffffffff1673ffffffffffffffffffffffffffffffffffffffff1681526020018261ffff16815260200192505050602060405180830381600087803b15801561096e57600080fd5b505af1158015610982573d6000803e3d6000fd5b505050506040513d602081101561099857600080fd5b810190808051906020019092919050505015610ce45760066001600281106109bc57fe5b0160009054906101000a900473ffffffffffffffffffffffffffffffffffffffff1673ffffffffffffffffffffffffffffffffffffffff1663c7fa87d733856040518363ffffffff1660e01b8152600401808373ffffffffffffffffffffffffffffffffffffffff1673ffffffffffffffffffffffffffffffffffffffff1681526020018261ffff16815260200192505050602060405180830381600087803b158015610a6857600080fd5b505af1158015610a7c573d6000803e3d6000fd5b505050506040513d6020811015610a9257600080fd5b8101908080519060200190929190505050508261ffff16600a600082825403925050819055508361ffff1660096000828254019250508190555060006006600060028110610adc57fe5b0160009054906101000a900473ffffffffffffffffffffffffffffffffffffffff1673ffffffffffffffffffffffffffffffffffffffff166370a08231336040518263ffffffff1660e01b8152600401808273ffffffffffffffffffffffffffffffffffffffff1673ffffffffffffffffffffffffffffffffffffffff16815260200191505060206040518083038186803b158015610b7a57600080fd5b505afa158015610b8e573d6000803e3d6000fd5b505050506040513d6020811015610ba457600080fd5b8101908080519060200190929190505050905060006006600160028110610bc757fe5b0160009054906101000a900473ffffffffffffffffffffffffffffffffffffffff1673ffffffffffffffffffffffffffffffffffffffff166370a08231336040518263ffffffff1660e01b8152600401808273ffffffffffffffffffffffffffffffffffffffff1673ffffffffffffffffffffffffffffffffffffffff16815260200191505060206040518083038186803b158015610c6557600080fd5b505afa158015610c79573d6000803e3d6000fd5b505050506040513d6020811015610c8f57600080fd5b810190808051906020019092919050505090507f3023e4e5bc3268ff6f9ffd65457e8b18e915d9685ffbcefac8f9cffffce5d0298282604051808381526020018281526020019250505060405180910390a150505b50505050565b6000809054906101000a900473ffffffffffffffffffffffffffffffffffffffff1673ffffffffffffffffffffffffffffffffffffffff163373ffffffffffffffffffffffffffffffffffffffff1614610d8f576040517f08c379a00000000000000000000000000000000000000000000000000000000081526004018080602001828103825260298152602001806132ac6029913960400191505060405180910390fd5b3373ffffffffffffffffffffffffffffffffffffffff166000809054906101000a900473ffffffffffffffffffffffffffffffffffffffff1673ffffffffffffffffffffffffffffffffffffffff1614610e51576040517f08c379a000000000000000000000000000000000000000000000000000000000815260040180806020018281038252601b8152602001807f4f6e6c79206f776e65722063616e20636861726765206574686572000000000081525060200191505060405180910390fd5b6006600160028110610e5f57fe5b0160009054906101000a900473ffffffffffffffffffffffffffffffffffffffff1673ffffffffffffffffffffffffffffffffffffffff16635ddba659826040518263ffffffff1660e01b815260040180828152602001915050602060405180830381600087803b158015610ed357600080fd5b505af1158015610ee7573d6000803e3d6000fd5b505050506040513d6020811015610efd57600080fd5b8101908080519060200190929190505050156110515780600a6000828254019250508190555060006006600060028110610f3357fe5b0160009054906101000a900473ffffffffffffffffffffffffffffffffffffffff1673ffffffffffffffffffffffffffffffffffffffff166370a08231336040518263ffffffff1660e01b8152600401808273ffffffffffffffffffffffffffffffffffffffff1673ffffffffffffffffffffffffffffffffffffffff16815260200191505060206040518083038186803b158015610fd157600080fd5b505afa158015610fe5573d6000803e3d6000fd5b505050506040513d6020811015610ffb57600080fd5b810190808051906020019092919050505090507f01123665d57e6c29106e2e8cbec317e07c836062832575b5c58d75a49a8983d5600a5482604051808381526020018281526020019250505060405180910390a1505b50565b600060149054906101000a900460ff161561112e577f26a78594a84bd5b3ccf8875d4b2076ec487351121c894ffbf5cb6adac4cb3ee86008600c54600d546040518080602001848152602001838152602001828103825285818154815260200191508054801561111957602002820191906000526020600020905b8160009054906101000a900473ffffffffffffffffffffffffffffffffffffffff1673ffffffffffffffffffffffffffffffffffffffff16815260200190600101908083116110cf575b505094505050505060405180910390a161117a565b7f45cbf56c51c07e2a9a1b899713d96a5c58f6a96b29a570e3449524463946703260405180806020018281038252602e81526020018061309d602e913960400191505060405180910390a15b565b60003073ffffffffffffffffffffffffffffffffffffffff163190508181116111f0576040517f08c379a000000000000000000000000000000000000000000000000000000000815260040180806020018281038252602f8152602001806130f8602f913960400191505060405180910390fd5b6000600660016002811061120057fe5b0160009054906101000a900473ffffffffffffffffffffffffffffffffffffffff1673ffffffffffffffffffffffffffffffffffffffff166370a08231336040518263ffffffff1660e01b8152600401808273ffffffffffffffffffffffffffffffffffffffff1673ffffffffffffffffffffffffffffffffffffffff16815260200191505060206040518083038186803b15801561129e57600080fd5b505afa1580156112b2573d6000803e3d6000fd5b505050506040513d60208110156112c857600080fd5b81019080805190602001909291905050509050828111611333576040517f08c379a000000000000000000000000000000000000000000000000000000000815260040180806020018281038252602a815260200180613282602a913960400191505060405180910390fd5b600660016002811061134157fe5b0160009054906101000a900473ffffffffffffffffffffffffffffffffffffffff1673ffffffffffffffffffffffffffffffffffffffff166323b872dd336000809054906101000a900473ffffffffffffffffffffffffffffffffffffffff16866040518463ffffffff1660e01b8152600401808473ffffffffffffffffffffffffffffffffffffffff1673ffffffffffffffffffffffffffffffffffffffff1681526020018373ffffffffffffffffffffffffffffffffffffffff1673ffffffffffffffffffffffffffffffffffffffff1681526020018281526020019350505050602060405180830381600087803b15801561143e57600080fd5b505af1158015611452573d6000803e3d6000fd5b505050506040513d602081101561146857600080fd5b81019080805190602001909291905050501561150f5782600a600082825401925050819055503373ffffffffffffffffffffffffffffffffffffffff166108fc849081150290604051600060405180830381858888f193505050501580156114d4573d6000803e3d6000fd5b507f21ba24e459e29dcdf2669111e64031fef1a5f852583b72a4ce709c41202cbadf8382036040518082815260200191505060405180910390a15b505050565b6000600a5490507fa59b6ddeab1cae5b850a166d55924329bae02b30fe8b4f638a74fc2282b88f62816040518082815260200191505060405180910390a150565b6000809054906101000a900473ffffffffffffffffffffffffffffffffffffffff1673ffffffffffffffffffffffffffffffffffffffff163373ffffffffffffffffffffffffffffffffffffffff16146115fa576040517f08c379a00000000000000000000000000000000000000000000000000000000081526004018080602001828103825260298152602001806132ac6029913960400191505060405180910390fd5b6000809054906101000a900473ffffffffffffffffffffffffffffffffffffffff1673ffffffffffffffffffffffffffffffffffffffff16ff5b60003490506009548110611693576040517f08c379a000000000000000000000000000000000000000000000000000000000815260040180806020018281038252602d8152602001806130cb602d913960400191505060405180910390fd5b60066000600281106116a157fe5b0160009054906101000a900473ffffffffffffffffffffffffffffffffffffffff1673ffffffffffffffffffffffffffffffffffffffff1663c5944f3033836040518363ffffffff1660e01b8152600401808373ffffffffffffffffffffffffffffffffffffffff1673ffffffffffffffffffffffffffffffffffffffff16815260200182815260200192505050602060405180830381600087803b15801561174957600080fd5b505af115801561175d573d6000803e3d6000fd5b505050506040513d602081101561177357600080fd5b8101908080519060200190929190505050156118c75780600960008282540392505081905550600060066000600281106117a957fe5b0160009054906101000a900473ffffffffffffffffffffffffffffffffffffffff1673ffffffffffffffffffffffffffffffffffffffff166370a08231336040518263ffffffff1660e01b8152600401808273ffffffffffffffffffffffffffffffffffffffff1673ffffffffffffffffffffffffffffffffffffffff16815260200191505060206040518083038186803b15801561184757600080fd5b505afa15801561185b573d6000803e3d6000fd5b505050506040513d602081101561187157600080fd5b810190808051906020019092919050505090507f01123665d57e6c29106e2e8cbec317e07c836062832575b5c58d75a49a8983d560095482604051808381526020018281526020019250505060405180910390a1505b50565b60011515600360003373ffffffffffffffffffffffffffffffffffffffff1673ffffffffffffffffffffffffffffffffffffffff16815260200190815260200160002060009054906101000a900460ff1615151415611cfe576000600360003373ffffffffffffffffffffffffffffffffffffffff1673ffffffffffffffffffffffffffffffffffffffff16815260200190815260200160002060006101000a81548160ff021916908315150217905550600560003373ffffffffffffffffffffffffffffffffffffffff1673ffffffffffffffffffffffffffffffffffffffff168152602001908152602001600020544203603c1015611cb15780600010611a1e576040517f08c379a00000000000000000000000000000000000000000000000000000000081526004018080602001828103825260298152602001806131276029913960400191505060405180910390fd5b600460003373ffffffffffffffffffffffffffffffffffffffff1673ffffffffffffffffffffffffffffffffffffffff168152602001908152602001600020600081548092919060010191905055506009600460003373ffffffffffffffffffffffffffffffffffffffff1673ffffffffffffffffffffffffffffffffffffffff168152602001908152602001600020541115611c6157600960008154809291906001019190505550600b600081548092919060010191905055506006600060028110611ae757fe5b0160009054906101000a900473ffffffffffffffffffffffffffffffffffffffff1673ffffffffffffffffffffffffffffffffffffffff1663f63af02c6040518163ffffffff1660e01b8152600401602060405180830381600087803b158015611b5057600080fd5b505af1158015611b64573d6000803e3d6000fd5b505050506040513d6020811015611b7a57600080fd5b8101908080519060200190929190505050506000600a600b54161415611c6057600a600081548092919060010191905055506006600160028110611bba57fe5b0160009054906101000a900473ffffffffffffffffffffffffffffffffffffffff1673ffffffffffffffffffffffffffffffffffffffff1663f63af02c6040518163ffffffff1660e01b8152600401602060405180830381600087803b158015611c2357600080fd5b505af1158015611c37573d6000803e3d6000fd5b505050506040513d6020811015611c4d57600080fd5b8101908080519060200190929190505050505b5b7f08095536ea8d8b2fec77adac635a7bb3182df0ebf2cfac107b2ebb3def039f2f60405180806020018281038252605b8152602001806131f5605b913960600191505060405180910390a1611cfd565b7f08095536ea8d8b2fec77adac635a7bb3182df0ebf2cfac107b2ebb3def039f2f6040518080602001828103825260588152602001806131746058913960600191505060405180910390a15b5b50565b6000809054906101000a900473ffffffffffffffffffffffffffffffffffffffff1673ffffffffffffffffffffffffffffffffffffffff163373ffffffffffffffffffffffffffffffffffffffff1614611da6576040517f08c379a00000000000000000000000000000000000000000000000000000000081526004018080602001828103825260298152602001806132ac6029913960400191505060405180910390fd5b3373ffffffffffffffffffffffffffffffffffffffff166000809054906101000a900473ffffffffffffffffffffffffffffffffffffffff1673ffffffffffffffffffffffffffffffffffffffff1614611e68576040517f08c379a000000000000000000000000000000000000000000000000000000000815260040180806020018281038252601b8152602001807f4f6e6c79206f776e65722063616e20636861726765206574686572000000000081525060200191505060405180910390fd5b6006600060028110611e7657fe5b0160009054906101000a900473ffffffffffffffffffffffffffffffffffffffff1673ffffffffffffffffffffffffffffffffffffffff16635ddba659826040518263ffffffff1660e01b815260040180828152602001915050602060405180830381600087803b158015611eea57600080fd5b505af1158015611efe573d6000803e3d6000fd5b505050506040513d6020811015611f1457600080fd5b810190808051906020019092919050505015612068578060096000828254019250508190555060006006600060028110611f4a57fe5b0160009054906101000a900473ffffffffffffffffffffffffffffffffffffffff1673ffffffffffffffffffffffffffffffffffffffff166370a08231336040518263ffffffff1660e01b8152600401808273ffffffffffffffffffffffffffffffffffffffff1673ffffffffffffffffffffffffffffffffffffffff16815260200191505060206040518083038186803b158015611fe857600080fd5b505afa158015611ffc573d6000803e3d6000fd5b505050506040513d602081101561201257600080fd5b810190808051906020019092919050505090507f01123665d57e6c29106e2e8cbec317e07c836062832575b5c58d75a49a8983d560095482604051808381526020018281526020019250505060405180910390a1505b50565b6000809054906101000a900473ffffffffffffffffffffffffffffffffffffffff1681565b6000600460003373ffffffffffffffffffffffffffffffffffffffff1673ffffffffffffffffffffffffffffffffffffffff1681526020019081526020016000205490507f1ac17ce728079d54e7aa5c7d35f969f14c4a86ad18774aa628a8c10a8da12a2d816040518082815260200191505060405180910390a150565b60011515600060149054906101000a900460ff16151514156121555760008060146101000a81548160ff0219169083151502179055506000600881612153919061304b565b505b600080905060008060146101000a81548160ff021916908315150217905550600660016002811061218257fe5b0160009054906101000a900473ffffffffffffffffffffffffffffffffffffffff1673ffffffffffffffffffffffffffffffffffffffff16639c48c535336040518263ffffffff1660e01b8152600401808273ffffffffffffffffffffffffffffffffffffffff1673ffffffffffffffffffffffffffffffffffffffff168152602001915050602060405180830381600087803b15801561222257600080fd5b505af1158015612236573d6000803e3d6000fd5b505050506040513d602081101561224c57600080fd5b81019080805190602001909291905050501561232d5760083390806001815401808255809150509060018203906000526020600020016000909192909190916101000a81548173ffffffffffffffffffffffffffffffffffffffff021916908373ffffffffffffffffffffffffffffffffffffffff16021790555090506001600254038114156122de5743600c819055505b6002548114156122f1576122f0612ec4565b5b7f03d2bd94d5eff135ba5f17136f59dc222a975967f95460474cb502ec139ee41a816040518082815260200191505060405180910390a161235a565b7f12895883079ab5742c07b893b170af16f63e31545211f684138232b16174789b60405160405180910390a15b50565b6000600660006002811061236d57fe5b0160009054906101000a900473ffffffffffffffffffffffffffffffffffffffff1673ffffffffffffffffffffffffffffffffffffffff166370a08231336040518263ffffffff1660e01b8152600401808273ffffffffffffffffffffffffffffffffffffffff1673ffffffffffffffffffffffffffffffffffffffff16815260200191505060206040518083038186803b15801561240b57600080fd5b505afa15801561241f573d6000803e3d6000fd5b505050506040513d602081101561243557600080fd5b810190808051906020019092919050505090506000600660016002811061245857fe5b0160009054906101000a900473ffffffffffffffffffffffffffffffffffffffff1673ffffffffffffffffffffffffffffffffffffffff166370a08231336040518263ffffffff1660e01b8152600401808273ffffffffffffffffffffffffffffffffffffffff1673ffffffffffffffffffffffffffffffffffffffff16815260200191505060206040518083038186803b1580156124f657600080fd5b505afa15801561250a573d6000803e3d6000fd5b505050506040513d602081101561252057600080fd5b810190808051906020019092919050505090507f01123665d57e6c29106e2e8cbec317e07c836062832575b5c58d75a49a8983d58282604051808381526020018281526020019250505060405180910390a15050565b6005600460003373ffffffffffffffffffffffffffffffffffffffff1673ffffffffffffffffffffffffffffffffffffffff168152602001908152602001600020541161260e576040517f08c379a00000000000000000000000000000000000000000000000000000000081526004018080602001828103825260248152602001806131506024913960400191505060405180910390fd5b600660006002811061261c57fe5b0160009054906101000a900473ffffffffffffffffffffffffffffffffffffffff1673ffffffffffffffffffffffffffffffffffffffff1663c5944f303360016040518363ffffffff1660e01b8152600401808373ffffffffffffffffffffffffffffffffffffffff1673ffffffffffffffffffffffffffffffffffffffff16815260200182815260200192505050602060405180830381600087803b1580156126c557600080fd5b505af11580156126d9573d6000803e3d6000fd5b505050506040513d60208110156126ef57600080fd5b81019080805190602001909291905050501561276757600960008154809291906001900391905055506005600460003373ffffffffffffffffffffffffffffffffffffffff1673ffffffffffffffffffffffffffffffffffffffff168152602001908152602001600020600082825403925050819055505b565b7f23750be3112dbb9e7bc733663e395920c64503c0790a740bee21d6ef3642f229600660016002811061279857fe5b0160009054906101000a900473ffffffffffffffffffffffffffffffffffffffff16604051808273ffffffffffffffffffffffffffffffffffffffff1673ffffffffffffffffffffffffffffffffffffffff16815260200191505060405180910390a1565b600060095490507fa59b6ddeab1cae5b850a166d55924329bae02b30fe8b4f638a74fc2282b88f62816040518082815260200191505060405180910390a150565b60001515600360003373ffffffffffffffffffffffffffffffffffffffff1673ffffffffffffffffffffffffffffffffffffffff16815260200190815260200160002060009054906101000a900460ff16151514156129385742600560003373ffffffffffffffffffffffffffffffffffffffff1673ffffffffffffffffffffffffffffffffffffffff168152602001908152602001600020819055506001600360003373ffffffffffffffffffffffffffffffffffffffff1673ffffffffffffffffffffffffffffffffffffffff16815260200190815260200160002060006101000a81548160ff021916908315150217905550612a20565b60b4600560003373ffffffffffffffffffffffffffffffffffffffff1673ffffffffffffffffffffffffffffffffffffffff1681526020019081526020016000205442031115612a1f5742600560003373ffffffffffffffffffffffffffffffffffffffff1673ffffffffffffffffffffffffffffffffffffffff168152602001908152602001600020819055506001600360003373ffffffffffffffffffffffffffffffffffffffff1673ffffffffffffffffffffffffffffffffffffffff16815260200190815260200160002060006101000a81548160ff0219169083151502179055505b5b565b6006600060028110612a3057fe5b0160009054906101000a900473ffffffffffffffffffffffffffffffffffffffff1673ffffffffffffffffffffffffffffffffffffffff1663a9059cbb83836040518363ffffffff1660e01b8152600401808373ffffffffffffffffffffffffffffffffffffffff1673ffffffffffffffffffffffffffffffffffffffff16815260200182815260200192505050602060405180830381600087803b158015612ad857600080fd5b505af1158015612aec573d6000803e3d6000fd5b505050506040513d6020811015612b0257600080fd5b8101908080519060200190929190505050505050565b60006006600060028110612b2857fe5b0160009054906101000a900473ffffffffffffffffffffffffffffffffffffffff1673ffffffffffffffffffffffffffffffffffffffff166370a08231336040518263ffffffff1660e01b8152600401808273ffffffffffffffffffffffffffffffffffffffff1673ffffffffffffffffffffffffffffffffffffffff16815260200191505060206040518083038186803b158015612bc657600080fd5b505afa158015612bda573d6000803e3d6000fd5b505050506040513d6020811015612bf057600080fd5b810190808051906020019092919050505090507f01123665d57e6c29106e2e8cbec317e07c836062832575b5c58d75a49a8983d560095482604051808381526020018281526020019250505060405180910390a150565b8060095411612cbe576040517f08c379a000000000000000000000000000000000000000000000000000000000815260040180806020018281038252601a8152602001807f776520646f6e2774206861766520656e6f75676820657468657200000000000081525060200191505060405180910390fd5b80600460003373ffffffffffffffffffffffffffffffffffffffff1673ffffffffffffffffffffffffffffffffffffffff1681526020019081526020016000205411612d72576040517f08c379a00000000000000000000000000000000000000000000000000000000081526004018080602001828103825260148152602001807f796f7520617265206e6f7420656e7469746c656400000000000000000000000081525060200191505060405180910390fd5b80600460003373ffffffffffffffffffffffffffffffffffffffff1673ffffffffffffffffffffffffffffffffffffffff16815260200190815260200160002060008282540392505081905550806009600082825403925050819055506006600060028110612ddd57fe5b0160009054906101000a900473ffffffffffffffffffffffffffffffffffffffff1673ffffffffffffffffffffffffffffffffffffffff1663c5944f3033836040518363ffffffff1660e01b8152600401808373ffffffffffffffffffffffffffffffffffffffff1673ffffffffffffffffffffffffffffffffffffffff16815260200182815260200192505050602060405180830381600087803b158015612e8557600080fd5b505af1158015612e99573d6000803e3d6000fd5b505050506040513d6020811015612eaf57600080fd5b81019080805190602001909291905050505050565b43600d819055506000600d5440600c5440604051602001808381526020018281526020019250505060405160208183030381529060405280519060200120905060006008805490508260001c81612f1757fe5b0690506001600060146101000a81548160ff02191690831515021790555060088181548110612f4257fe5b9060005260206000200160009054906101000a900473ffffffffffffffffffffffffffffffffffffffff16600160006101000a81548173ffffffffffffffffffffffffffffffffffffffff021916908373ffffffffffffffffffffffffffffffffffffffff1602179055507f5de377eeb92cf37e113bd369ce8f1ca72f4bb7e9aaf32128a11eeb997cd013e460088281548110612fdb57fe5b9060005260206000200160009054906101000a900473ffffffffffffffffffffffffffffffffffffffff16604051808273ffffffffffffffffffffffffffffffffffffffff1673ffffffffffffffffffffffffffffffffffffffff16815260200191505060405180910390a15050565b815481835581811115613072578183600052602060002091820191016130719190613077565b5b505050565b61309991905b8082111561309557600081600090555060010161307d565b5090565b9056feec9584eca78120ec9d91ebaaa8eab08020eca285eba38ceb9098eca78020ec958aec9598ec8ab5eb8b88eb8ba42e5465747269733a20796f7572206574686572206973206c6172676572207468616e20686f757365206d6f6e65795465747269733a20696e20636f6e74726163742c20776520646f6e2774206861766520656e6f756768206574686572796f75722073636f72657320646964206e6f742073617469736679207374616e64617264506f696e745465747269733a20796f7520646f6e74206861766520656e6f7567682073636f72657321eab28cec9e84ec9db4ec9aa9ec8b9ceab084ec9db42031ebb68420ebafb8eba78cec9db4eab8b0ec979020eb8884eca081eca090ec889820ec96bbeab8b0ec979020ec8ba4ed8ca8ed9598ec9880ec8ab5eb8b88eb8ba42e5465747269733a20796f7520646f6e7420686176652074686174206d7563682067616d65546f6b656eeab28cec9e8420ec9db4ec9aa920ec8b9ceab084ec9db42031ebb68420ec9db4ec8381ec9db4eab3a020eb8884eca081eca090ec889820ec96bbeb8a9420eab283ec979020ec84b1eab3b5ed9598ec9880ec8ab5eb8b88eb8ba4215465747269733a20536f7272792c20486f757365204574686572206973206c61636b206f6620796f757220726571756573745465747269733a20796f7520646f6e277420686176652074686174206d7563682064726177546f6b656e5465747269733a4f6e6c79206f776e65722063616e2063616c6c20746869732066756e6374696f6e2ea165627a7a723058201623c4ae0bab4105ead11833bab40df6de2ec83da1eac187b3ac7353490911620029608060405234801561001057600080fd5b506040516020806110028339810180604052602081101561003057600080fd5b8101908080519060200190929190505050806000806101000a81548173ffffffffffffffffffffffffffffffffffffffff021916908373ffffffffffffffffffffffffffffffffffffffff1602179055506509184e72a000600760008373ffffffffffffffffffffffffffffffffffffffff1673ffffffffffffffffffffffffffffffffffffffff168152602001908152602001600020819055506509184e72a0006005819055506040518060400160405280600a81526020017f47414d4520544f4b454e0000000000000000000000000000000000000000000081525060039080519060200190610123929190610192565b506012600260006101000a81548160ff021916908360ff1602179055506040518060400160405280600481526020017f47414d45000000000000000000000000000000000000000000000000000000008152506004908051906020019061018b929190610192565b5050610237565b828054600181600116156101000203166002900490600052602060002090601f016020900481019282601f106101d357805160ff1916838001178555610201565b82800160010185558215610201579182015b828111156102005782518255916020019190600101906101e5565b5b50905061020e9190610212565b5090565b61023491905b80821115610230576000816000905550600101610218565b5090565b90565b610dbc806102466000396000f3fe608060405234801561001057600080fd5b50600436106100a95760003560e01c8063a9059cbb11610071578063a9059cbb1461029e578063acd4dbf014610304578063c4e41b2214610322578063c5944f3014610340578063dd62ed3e146103a6578063f63af02c1461041e576100a9565b8063095ea7b3146100ae57806323b872dd146101145780635ddba6591461019a57806370a08231146101e05780637ce7c99014610238575b600080fd5b6100fa600480360360408110156100c457600080fd5b81019080803573ffffffffffffffffffffffffffffffffffffffff16906020019092919080359060200190929190505050610440565b604051808215151515815260200191505060405180910390f35b6101806004803603606081101561012a57600080fd5b81019080803573ffffffffffffffffffffffffffffffffffffffff169060200190929190803573ffffffffffffffffffffffffffffffffffffffff16906020019092919080359060200190929190505050610532565b604051808215151515815260200191505060405180910390f35b6101c6600480360360208110156101b057600080fd5b81019080803590602001909291905050506107ae565b604051808215151515815260200191505060405180910390f35b610222600480360360208110156101f657600080fd5b81019080803573ffffffffffffffffffffffffffffffffffffffff1690602001909291905050506108ef565b6040518082815260200191505060405180910390f35b6102846004803603604081101561024e57600080fd5b81019080803573ffffffffffffffffffffffffffffffffffffffff16906020019092919080359060200190929190505050610938565b604051808215151515815260200191505060405180910390f35b6102ea600480360360408110156102b457600080fd5b81019080803573ffffffffffffffffffffffffffffffffffffffff169060200190929190803590602001909291905050506109ff565b604051808215151515815260200191505060405180910390f35b61030c610baa565b6040518082815260200191505060405180910390f35b61032a610bb4565b6040518082815260200191505060405180910390f35b61038c6004803603604081101561035657600080fd5b81019080803573ffffffffffffffffffffffffffffffffffffffff16906020019092919080359060200190929190505050610bbe565b604051808215151515815260200191505060405180910390f35b610408600480360360408110156103bc57600080fd5b81019080803573ffffffffffffffffffffffffffffffffffffffff169060200190929190803573ffffffffffffffffffffffffffffffffffffffff169060200190929190505050610cad565b6040518082815260200191505060405180910390f35b610426610d34565b604051808215151515815260200191505060405180910390f35b600081600860003373ffffffffffffffffffffffffffffffffffffffff1673ffffffffffffffffffffffffffffffffffffffff16815260200190815260200160002060008573ffffffffffffffffffffffffffffffffffffffff1673ffffffffffffffffffffffffffffffffffffffff168152602001908152602001600020819055508273ffffffffffffffffffffffffffffffffffffffff163373ffffffffffffffffffffffffffffffffffffffff167f8c5be1e5ebec7d5bd14f71427d1e84f3dd0314c0f7b2291e5b200ac8c7c3b925846040518082815260200191505060405180910390a36001905092915050565b600081600760008673ffffffffffffffffffffffffffffffffffffffff1673ffffffffffffffffffffffffffffffffffffffff16815260200190815260200160002054101580156105ff575081600860008673ffffffffffffffffffffffffffffffffffffffff1673ffffffffffffffffffffffffffffffffffffffff16815260200190815260200160002060003373ffffffffffffffffffffffffffffffffffffffff1673ffffffffffffffffffffffffffffffffffffffff1681526020019081526020016000205410155b801561060b5750600082115b156107a25781600760008573ffffffffffffffffffffffffffffffffffffffff1673ffffffffffffffffffffffffffffffffffffffff1681526020019081526020016000206000828254019250508190555081600760008673ffffffffffffffffffffffffffffffffffffffff1673ffffffffffffffffffffffffffffffffffffffff1681526020019081526020016000206000828254039250508190555081600860008673ffffffffffffffffffffffffffffffffffffffff1673ffffffffffffffffffffffffffffffffffffffff16815260200190815260200160002060003373ffffffffffffffffffffffffffffffffffffffff1673ffffffffffffffffffffffffffffffffffffffff168152602001908152602001600020600082825403925050819055508273ffffffffffffffffffffffffffffffffffffffff168473ffffffffffffffffffffffffffffffffffffffff167fddf252ad1be2c89b69c2b068fc378daa952ba7f163c4a11628f55a4df523b3ef846040518082815260200191505060405180910390a3600190506107a7565b600090505b9392505050565b600081600760008060009054906101000a900473ffffffffffffffffffffffffffffffffffffffff1673ffffffffffffffffffffffffffffffffffffffff1673ffffffffffffffffffffffffffffffffffffffff1681526020019081526020016000205411610868576040517f08c379a0000000000000000000000000000000000000000000000000000000008152600401808060200182810382526041815260200180610d506041913960600191505060405180910390fd5b8160066000828254019250508190555081600760008060009054906101000a900473ffffffffffffffffffffffffffffffffffffffff1673ffffffffffffffffffffffffffffffffffffffff1673ffffffffffffffffffffffffffffffffffffffff1681526020019081526020016000206000828254039250508190555060019050919050565b6000600760008373ffffffffffffffffffffffffffffffffffffffff1673ffffffffffffffffffffffffffffffffffffffff168152602001908152602001600020549050919050565b600081600760008573ffffffffffffffffffffffffffffffffffffffff1673ffffffffffffffffffffffffffffffffffffffff16815260200190815260200160002054101580156109895750600082115b156109f45781600760008573ffffffffffffffffffffffffffffffffffffffff1673ffffffffffffffffffffffffffffffffffffffff1681526020019081526020016000206000828254039250508190555081600660008282540192505081905550600190506109f9565b600090505b92915050565b600081600760008060009054906101000a900473ffffffffffffffffffffffffffffffffffffffff1673ffffffffffffffffffffffffffffffffffffffff1673ffffffffffffffffffffffffffffffffffffffff1681526020019081526020016000205410158015610a715750600082115b15610b9f5781600760008060009054906101000a900473ffffffffffffffffffffffffffffffffffffffff1673ffffffffffffffffffffffffffffffffffffffff1673ffffffffffffffffffffffffffffffffffffffff1681526020019081526020016000206000828254039250508190555081600760008573ffffffffffffffffffffffffffffffffffffffff1673ffffffffffffffffffffffffffffffffffffffff168152602001908152602001600020600082825401925050819055508273ffffffffffffffffffffffffffffffffffffffff163373ffffffffffffffffffffffffffffffffffffffff167fddf252ad1be2c89b69c2b068fc378daa952ba7f163c4a11628f55a4df523b3ef846040518082815260200191505060405180910390a360019050610ba4565b600090505b92915050565b6000600654905090565b6000600554905090565b60008160065410158015610bd25750600082115b15610ca2578160066000828254039250508190555081600760008573ffffffffffffffffffffffffffffffffffffffff1673ffffffffffffffffffffffffffffffffffffffff168152602001908152602001600020600082825401925050819055508273ffffffffffffffffffffffffffffffffffffffff163373ffffffffffffffffffffffffffffffffffffffff167fddf252ad1be2c89b69c2b068fc378daa952ba7f163c4a11628f55a4df523b3ef846040518082815260200191505060405180910390a360019050610ca7565b600090505b92915050565b6000600860008473ffffffffffffffffffffffffffffffffffffffff1673ffffffffffffffffffffffffffffffffffffffff16815260200190815260200160002060008373ffffffffffffffffffffffffffffffffffffffff1673ffffffffffffffffffffffffffffffffffffffff16815260200190815260200160002054905092915050565b6000600660008154809291906001019190505550600190509056feec868cec9ca0ec9e90ec9d9820ec9db4eb8d94eab08020ecb6a9eca084ed9598eba0a4eb8a9420ec9db4eb8d94ebb3b4eb8ba420eca081ec8ab5eb8b88eb8ba42ea165627a7a72305820fc0dada3d3386e47a5be25d84a54167275272bdcf8b7e68a93ace4e7ee0409ac002960806040523480156200001157600080fd5b5060405160208062001132833981018060405260208110156200003357600080fd5b8101908080519060200190929190505050806000806101000a81548173ffffffffffffffffffffffffffffffffffffffff021916908373ffffffffffffffffffffffffffffffffffffffff160217905550670de0b6b3a7640000600760008373ffffffffffffffffffffffffffffffffffffffff1673ffffffffffffffffffffffffffffffffffffffff16815260200190815260200160002081905550670de0b6b3a76400006005819055506040518060400160405280600a81526020017f4452415720544f4b454e00000000000000000000000000000000000000000000815250600390805190602001906200012c9291906200019e565b506012600260006101000a81548160ff021916908360ff1602179055506040518060400160405280600481526020017f445241570000000000000000000000000000000000000000000000000000000081525060049080519060200190620001969291906200019e565b50506200024d565b828054600181600116156101000203166002900490600052602060002090601f016020900481019282601f10620001e157805160ff191683800117855562000212565b8280016001018555821562000212579182015b8281111562000211578251825591602001919060010190620001f4565b5b50905062000221919062000225565b5090565b6200024a91905b80821115620002465760008160009055506001016200022c565b5090565b90565b610ed5806200025d6000396000f3fe608060405234801561001057600080fd5b50600436106100cf5760003560e01c80639c48c5351161008c578063c4e41b2211610066578063c4e41b22146103c2578063c7fa87d7146103e0578063dd62ed3e14610446578063f63af02c146104be576100cf565b80639c48c535146102e2578063a9059cbb1461033e578063acd4dbf0146103a4576100cf565b8063095ea7b3146100d45780630cb2b4491461013a57806323b872dd146101a05780635ddba6591461022657806370a082311461026c57806381310d09146102c4575b600080fd5b610120600480360360408110156100ea57600080fd5b81019080803573ffffffffffffffffffffffffffffffffffffffff169060200190929190803590602001909291905050506104e0565b604051808215151515815260200191505060405180910390f35b6101866004803603604081101561015057600080fd5b81019080803573ffffffffffffffffffffffffffffffffffffffff169060200190929190803590602001909291905050506105d2565b604051808215151515815260200191505060405180910390f35b61020c600480360360608110156101b657600080fd5b81019080803573ffffffffffffffffffffffffffffffffffffffff169060200190929190803573ffffffffffffffffffffffffffffffffffffffff169060200190929190803590602001909291905050506106c1565b604051808215151515815260200191505060405180910390f35b6102526004803603602081101561023c57600080fd5b810190808035906020019092919050505061093d565b604051808215151515815260200191505060405180910390f35b6102ae6004803603602081101561028257600080fd5b81019080803573ffffffffffffffffffffffffffffffffffffffff169060200190929190505050610a7e565b6040518082815260200191505060405180910390f35b6102cc610ac7565b6040518082815260200191505060405180910390f35b610324600480360360208110156102f857600080fd5b81019080803573ffffffffffffffffffffffffffffffffffffffff169060200190929190505050610ad1565b604051808215151515815260200191505060405180910390f35b61038a6004803603604081101561035457600080fd5b81019080803573ffffffffffffffffffffffffffffffffffffffff16906020019092919080359060200190929190505050610b7d565b604051808215151515815260200191505060405180910390f35b6103ac610d28565b6040518082815260200191505060405180910390f35b6103ca610d32565b6040518082815260200191505060405180910390f35b61042c600480360360408110156103f657600080fd5b81019080803573ffffffffffffffffffffffffffffffffffffffff16906020019092919080359060200190929190505050610d3c565b604051808215151515815260200191505060405180910390f35b6104a86004803603604081101561045c57600080fd5b81019080803573ffffffffffffffffffffffffffffffffffffffff169060200190929190803573ffffffffffffffffffffffffffffffffffffffff169060200190929190505050610dc6565b6040518082815260200191505060405180910390f35b6104c6610e4d565b604051808215151515815260200191505060405180910390f35b600081600860003373ffffffffffffffffffffffffffffffffffffffff1673ffffffffffffffffffffffffffffffffffffffff16815260200190815260200160002060008573ffffffffffffffffffffffffffffffffffffffff1673ffffffffffffffffffffffffffffffffffffffff168152602001908152602001600020819055508273ffffffffffffffffffffffffffffffffffffffff163373ffffffffffffffffffffffffffffffffffffffff167f8c5be1e5ebec7d5bd14f71427d1e84f3dd0314c0f7b2291e5b200ac8c7c3b925846040518082815260200191505060405180910390a36001905092915050565b600081600654101580156105e65750600082115b156106b6578160066000828254039250508190555081600760008573ffffffffffffffffffffffffffffffffffffffff1673ffffffffffffffffffffffffffffffffffffffff168152602001908152602001600020600082825401925050819055508273ffffffffffffffffffffffffffffffffffffffff163373ffffffffffffffffffffffffffffffffffffffff167fddf252ad1be2c89b69c2b068fc378daa952ba7f163c4a11628f55a4df523b3ef846040518082815260200191505060405180910390a3600190506106bb565b600090505b92915050565b600081600760008673ffffffffffffffffffffffffffffffffffffffff1673ffffffffffffffffffffffffffffffffffffffff168152602001908152602001600020541015801561078e575081600860008673ffffffffffffffffffffffffffffffffffffffff1673ffffffffffffffffffffffffffffffffffffffff16815260200190815260200160002060003373ffffffffffffffffffffffffffffffffffffffff1673ffffffffffffffffffffffffffffffffffffffff1681526020019081526020016000205410155b801561079a5750600082115b156109315781600760008573ffffffffffffffffffffffffffffffffffffffff1673ffffffffffffffffffffffffffffffffffffffff1681526020019081526020016000206000828254019250508190555081600760008673ffffffffffffffffffffffffffffffffffffffff1673ffffffffffffffffffffffffffffffffffffffff1681526020019081526020016000206000828254039250508190555081600860008673ffffffffffffffffffffffffffffffffffffffff1673ffffffffffffffffffffffffffffffffffffffff16815260200190815260200160002060003373ffffffffffffffffffffffffffffffffffffffff1673ffffffffffffffffffffffffffffffffffffffff168152602001908152602001600020600082825403925050819055508273ffffffffffffffffffffffffffffffffffffffff168473ffffffffffffffffffffffffffffffffffffffff167fddf252ad1be2c89b69c2b068fc378daa952ba7f163c4a11628f55a4df523b3ef846040518082815260200191505060405180910390a360019050610936565b600090505b9392505050565b600081600760008060009054906101000a900473ffffffffffffffffffffffffffffffffffffffff1673ffffffffffffffffffffffffffffffffffffffff1673ffffffffffffffffffffffffffffffffffffffff16815260200190815260200160002054116109f7576040517f08c379a0000000000000000000000000000000000000000000000000000000008152600401808060200182810382526041815260200180610e696041913960600191505060405180910390fd5b8160066000828254019250508190555081600760008060009054906101000a900473ffffffffffffffffffffffffffffffffffffffff1673ffffffffffffffffffffffffffffffffffffffff1673ffffffffffffffffffffffffffffffffffffffff1681526020019081526020016000206000828254039250508190555060019050919050565b6000600760008373ffffffffffffffffffffffffffffffffffffffff1673ffffffffffffffffffffffffffffffffffffffff168152602001908152602001600020549050919050565b6000600654905090565b60006001600760008473ffffffffffffffffffffffffffffffffffffffff1673ffffffffffffffffffffffffffffffffffffffff1681526020019081526020016000205410610b7357600760008373ffffffffffffffffffffffffffffffffffffffff1673ffffffffffffffffffffffffffffffffffffffff168152602001908152602001600020600081548092919060019003919050555060019050610b78565b600090505b919050565b600081600760008060009054906101000a900473ffffffffffffffffffffffffffffffffffffffff1673ffffffffffffffffffffffffffffffffffffffff1673ffffffffffffffffffffffffffffffffffffffff1681526020019081526020016000205410158015610bef5750600082115b15610d1d5781600760008060009054906101000a900473ffffffffffffffffffffffffffffffffffffffff1673ffffffffffffffffffffffffffffffffffffffff1673ffffffffffffffffffffffffffffffffffffffff1681526020019081526020016000206000828254039250508190555081600760008573ffffffffffffffffffffffffffffffffffffffff1673ffffffffffffffffffffffffffffffffffffffff168152602001908152602001600020600082825401925050819055508273ffffffffffffffffffffffffffffffffffffffff163373ffffffffffffffffffffffffffffffffffffffff167fddf252ad1be2c89b69c2b068fc378daa952ba7f163c4a11628f55a4df523b3ef846040518082815260200191505060405180910390a360019050610d22565b600090505b92915050565b6000600654905090565b6000600554905090565b60008160065410158015610d505750600082115b15610dbb578160066000828254039250508190555081600760008573ffffffffffffffffffffffffffffffffffffffff1673ffffffffffffffffffffffffffffffffffffffff1681526020019081526020016000206000828254019250508190555060019050610dc0565b600090505b92915050565b6000600860008473ffffffffffffffffffffffffffffffffffffffff1673ffffffffffffffffffffffffffffffffffffffff16815260200190815260200160002060008373ffffffffffffffffffffffffffffffffffffffff1673ffffffffffffffffffffffffffffffffffffffff16815260200190815260200160002054905092915050565b6000600660008154809291906001019190505550600190509056feec868cec9ca0ec9e90ec9d9820ec9db4eb8d94eab08020ecb6a9eca084ed9598eba0a4eb8a9420ec9db4eb8d94ebb3b4eb8ba420eca081ec8ab5eb8b88eb8ba42ea165627a7a723058208a329a1d7fec33572b8a5c43784f6e5dde37aa44cf2428b632848266dcbc98cd0029",
  "source": "pragma solidity ^0.5.0;\r\n\r\nimport \"./GameToken.sol\";\r\nimport \"./DrawToken.sol\";\r\n\r\ncontract Tetris{\r\n\r\n    address payable public owner;\r\n    bool isFinished = false;\r\n    address cel;\r\n    uint private max=5;//   roleVoting .\r\n    \r\n\r\n    mapping(address=>bool) blockUser; \r\n    mapping(address=>uint) userCounts; //         \r\n    mapping(address=>uint) gameCheck;\r\n\r\n    \r\n    address[2] tokenAddress;//      .\r\n    //()     .\r\n\r\n    address[] votingAddress;\r\n\r\n    uint private lockMoney=0;\r\n    uint private lockMoney2=0;\r\n    uint private time=0;\r\n\r\n    uint firstBlock;\r\n    uint secondBlock;\r\n\r\n    event CheckScores(uint scores);//  \r\n    event checkHouseEther(uint house); //   \r\n    event etherToGameToken(uint house,uint myEther); //  GameToken   \r\n    event checkToken(address gameToken); //GameToken, Draw   \r\n    event checkToken2(address drawToken); //GameToken, Draw   \r\n    event gameTokenTodrawToken(uint myGametoken, uint myDrawtoken);\r\n    event drawToether(uint myehter);\r\n\r\n    event resultVoting();\r\n    event failVoting(string result);\r\n    event congrat(address receiver); //  return .\r\n    event checkArgument(address[] output,uint firstBlocknumber, uint secondBlocknumber);// .\r\n    event Score(string tem); // 1      event\r\n\r\n    event attendResult(uint index); //  ,    \r\n\r\n    event useGameItem(bool result); //    \r\n\r\n    constructor () public {\r\n        owner = msg.sender; //   owner .\r\n        tokenAddress[0] = address(new GameToken(msg.sender)); //      \r\n        //    . tokenAddress    .\r\n        tokenAddress[1] = address(new DrawToken(msg.sender));\r\n    }\r\n\r\n    modifier onlyOwner {\r\n        require (msg.sender == owner, \"Tetris:Only owner can call this function.\");\r\n        _;\r\n    }\r\n\r\n    function example(address to, uint amount)external {\r\n        GameToken(tokenAddress[0]).transfer(to,amount);\r\n        //     .\r\n    }\r\n\r\n\r\n    function checkTokenAddress() external{\r\n        emit checkToken(tokenAddress[0]);\r\n    }\r\n    function checkTokenAddress2() external{\r\n        emit checkToken2(tokenAddress[1]);\r\n    }\r\n\r\n    function checkMyToken() external{\r\n        uint game = GameToken(tokenAddress[0]).balanceOf(msg.sender);\r\n        uint draw = DrawToken(tokenAddress[1]).balanceOf(msg.sender);\r\n        emit etherToGameToken(game, draw);\r\n    }\r\n\r\n    function buyDrawToken(uint16 gameToken, uint16 drawToken) external payable{\r\n        //gameToken  drawToken .\r\n        uint myGameToken = GameToken(tokenAddress[0]).balanceOf(msg.sender);\r\n        require(myGameToken > gameToken,\"Tetris: you dont have that much gameToken\");\r\n        uint HouseDrawToken = lockMoney2; // draw  \r\n        require(HouseDrawToken > drawToken,\"Tetris: Sorry, House Ether is lack of your request\");\r\n        //    .\r\n        if(GameToken(tokenAddress[0]).transfer2(msg.sender,gameToken)){\r\n            //  \r\n            DrawToken(tokenAddress[1]).getDrawToken(msg.sender,drawToken);\r\n            lockMoney2 -= drawToken;\r\n            lockMoney += gameToken;\r\n\r\n            uint gameT = GameToken(tokenAddress[0]).balanceOf(msg.sender);\r\n            uint drawT = DrawToken(tokenAddress[1]).balanceOf(msg.sender);\r\n\r\n            emit gameTokenTodrawToken(gameT, drawT);\r\n        }\r\n    }\r\n\r\n    function startGame() external{//         .\r\n        if(blockUser[msg.sender]==false){\r\n        gameCheck[msg.sender] = block.timestamp;\r\n        blockUser[msg.sender] = true;\r\n        }else if(block.timestamp -gameCheck[msg.sender] > 3 minutes ){\r\n            gameCheck[msg.sender] = now;\r\n            blockUser[msg.sender] = true;\r\n        }\r\n    }\r\n    function reFundEther(uint drawToken)external payable{\r\n        //drawtoken ether \r\n        //   ether   \r\n        uint myEther = address(this).balance;\r\n        require(myEther > drawToken,\"Tetris: in contract, we don't have enough ether\");\r\n        //      .\r\n        uint myEther2 = DrawToken(tokenAddress[1]).balanceOf(msg.sender);\r\n        require(myEther2> drawToken,\"Tetris: you don't have that much drawToken\");\r\n\r\n        if(DrawToken(tokenAddress[1]).transferFrom(msg.sender,owner,drawToken)){\r\n            lockMoney2 += drawToken;\r\n            msg.sender.transfer(drawToken);//    \r\n            emit drawToether(myEther2-drawToken);// drawToken - .\r\n        }\r\n    }\r\n\r\n    function getGameToken() external{\r\n        //    .\r\n        require(userCounts[msg.sender]>5,\"Tetris: you dont have enough scores!\");\r\n        if(GameToken(tokenAddress[0]).Token(msg.sender,1)){\r\n            lockMoney--;\r\n            userCounts[msg.sender] -= 5;\r\n        }\r\n\r\n    }\r\n\r\n    function buyGameToken()external payable{\r\n        // GameToken .\r\n        uint amount = msg.value;\r\n        require(amount < lockMoney,\"Tetris: your ether is larger than house money\");\r\n        if(GameToken(tokenAddress[0]).Token(msg.sender,amount)){\r\n            lockMoney -= amount;\r\n            uint myEther = GameToken(tokenAddress[0]).balanceOf(msg.sender);\r\n            emit etherToGameToken(lockMoney,myEther);//  Game \r\n            //   \r\n        }\r\n    }\r\n\r\n    function attendVoting()external {\r\n        //   \r\n        //DRAW   \r\n        if(isFinished==true){\r\n            isFinished=false;\r\n            votingAddress.length=0;\r\n        }\r\n        uint256 pos = 0;\r\n        isFinished = false;\r\n        if(DrawToken(tokenAddress[1]).useToken(msg.sender)){\r\n        //voting   .\r\n        pos = votingAddress.push(msg.sender); // .\r\n        if(pos==max-1){\r\n            firstBlock=block.number;\r\n        }\r\n        if(pos==max){\r\n\r\n            roleVoting();\r\n        }\r\n            emit attendResult(pos);\r\n            //pos         .\r\n        }else{//  \r\n            emit resultVoting();\r\n        }\r\n    }\r\n\r\n    function roleVoting() private {\r\n        //        .\r\n        secondBlock = block.number;\r\n        bytes32 random = keccak256(abi.encodePacked(blockhash(secondBlock),blockhash(firstBlock)));\r\n        \r\n        \r\n        uint len = uint(random)%votingAddress.length;\r\n        isFinished=true;\r\n        cel=votingAddress[len];\r\n        //cel   .\r\n        emit congrat(votingAddress[len]);\r\n    }\r\n\r\n    function checkArg() external{\r\n        //   .\r\n        if(isFinished){\r\n            emit checkArgument(votingAddress,firstBlock,secondBlock);//     .\r\n        }else{\r\n            emit failVoting(\"   .\");\r\n            //    .\r\n        }\r\n    }\r\n    \r\n    function charging(uint scores)external onlyOwner payable{ //   .\r\n        require(owner==msg.sender,\"Only owner can charge ether\");\r\n        if(GameToken(tokenAddress[0]).charging(scores)){\r\n        lockMoney += scores;\r\n        uint myEther = GameToken(tokenAddress[0]).balanceOf(msg.sender);\r\n        emit etherToGameToken(lockMoney, myEther);\r\n        }\r\n        //HanyangToken  \r\n    }\r\n\r\n    function charging2(uint scores)external onlyOwner payable{ //   .\r\n        require(owner==msg.sender,\"Only owner can charge ether\");\r\n        if(DrawToken(tokenAddress[1]).charging(scores)){\r\n        lockMoney2 += scores;\r\n        uint myEther = DrawToken(tokenAddress[0]).balanceOf(msg.sender);\r\n        emit etherToGameToken(lockMoney2, myEther);\r\n        }\r\n    }\r\n\r\n\r\n    function win(uint scores)public{\r\n        //payable    .\r\n        //msg.value     \r\n        //address.send(amount);  address   .\r\n        //event    front end args    .\r\n        if(blockUser[msg.sender]==true){\r\n\r\n            blockUser[msg.sender] = false;\r\n        if(1 minutes < block.timestamp - gameCheck[msg.sender]){\r\n            //      1    .\r\n             require(0<scores,\"your scores did not satisfy standardPoint\");\r\n            userCounts[msg.sender]++; //       1 \r\n             if(userCounts[msg.sender]>9){\r\n            //GameToken   .\r\n            lockMoney++;//lockMoney    gametoken .\r\n            time++;\r\n            GameToken(tokenAddress[0]).makeToken();\r\n            if(time&10==0){\r\n                //10   DrawToken .\r\n                lockMoney2++;\r\n                DrawToken(tokenAddress[1]).makeToken();\r\n             }\r\n            }\r\n            emit Score(\"   1     !\");\r\n        }else{\r\n            emit Score(\" 1    .\");\r\n            //  1  .\r\n        }\r\n        //     event \r\n        }\r\n    }\r\n    // Funds withdrawal to maintain the house\r\n        //     ,  owner \r\n\r\n    function getEther(uint money)external{\r\n        //    .\r\n        require(lockMoney > money,\"we don't have enough ether\");\r\n        require(userCounts[msg.sender] > money, \"you are not entitled\"); //   \r\n        userCounts[msg.sender] -= money; //  .\r\n        lockMoney -= money;\r\n        GameToken(tokenAddress[0]).Token(msg.sender, money);\r\n        //   .   \r\n    }\r\n\r\n    function check()external{ //   .\r\n        uint he = userCounts[msg.sender];\r\n        emit CheckScores(he);\r\n    }\r\n\r\n    function checkMyGameToken() external{\r\n        uint myEther = GameToken(tokenAddress[0]).balanceOf(msg.sender);\r\n        emit etherToGameToken(lockMoney, myEther);\r\n    }\r\n\r\n    function checkHouse()external{ //    .\r\n        uint he;\r\n        he = lockMoney;\r\n        emit checkHouseEther(he);\r\n    }\r\n    function checkHouse2()external{ //    .\r\n        uint he;\r\n        he = lockMoney2;\r\n        emit checkHouseEther(he);\r\n    }\r\n\r\n    function useItem()external {\r\n        //hanyang token  .\r\n        uint myEther = GameToken(tokenAddress[0]).balanceOf(msg.sender);\r\n        bool result = false;\r\n        if(myEther>=1){\r\n            bool result = GameToken(tokenAddress[0]).charging(1);\r\n            lockMoney++;\r\n        }else{\r\n            bool result = false;\r\n        }\r\n        emit useGameItem(result);\r\n    }\r\n\r\n\r\n    function kill() external onlyOwner {\r\n        selfdestruct(owner);\r\n    }\r\n\r\n    function () external payable {} //fallback  .        \r\n}",
  "sourcePath": "C:/Users/User/Blockchain/hanyang/contracts/Tetris.sol",
  "compiler": {
    "name": "solc",
    "version": "0.5.8+commit.23d335f2.Emscripten.clang"
  },
  "schemaVersion": "3.0.16",
  "updatedAt": "2020-05-05T07:30:40.785Z",
  "devdoc": {
    "methods": {}
  },
  "userdoc": {
    "methods": {}
  }
}